{
  "contractName": "ProductList",
  "abi": [
    {
      "constant": true,
      "inputs": [
        {
          "name": "",
          "type": "uint256"
        }
      ],
      "name": "items",
      "outputs": [
        {
          "name": "id",
          "type": "uint256"
        },
        {
          "name": "seller",
          "type": "address"
        },
        {
          "name": "buyer",
          "type": "address"
        },
        {
          "name": "name",
          "type": "string"
        },
        {
          "name": "description",
          "type": "string"
        },
        {
          "name": "price",
          "type": "uint256"
        }
      ],
      "payable": false,
      "stateMutability": "view",
      "type": "function",
      "signature": "0xbfb231d2"
    },
    {
      "anonymous": false,
      "inputs": [
        {
          "indexed": true,
          "name": "_id",
          "type": "uint256"
        },
        {
          "indexed": true,
          "name": "_seller",
          "type": "address"
        },
        {
          "indexed": false,
          "name": "_name",
          "type": "string"
        },
        {
          "indexed": false,
          "name": "_price",
          "type": "uint256"
        }
      ],
      "name": "itemSold",
      "type": "event",
      "signature": "0x577e6057991b3d10725bee9f35769fb6ca271654e67cffde5ece0904f53bea2d"
    },
    {
      "anonymous": false,
      "inputs": [
        {
          "indexed": true,
          "name": "_id",
          "type": "uint256"
        },
        {
          "indexed": true,
          "name": "_buyer",
          "type": "address"
        },
        {
          "indexed": true,
          "name": "_seller",
          "type": "address"
        },
        {
          "indexed": false,
          "name": "_name",
          "type": "string"
        },
        {
          "indexed": false,
          "name": "_price",
          "type": "uint256"
        }
      ],
      "name": "itemBought",
      "type": "event",
      "signature": "0x9e0389ddbe9a5b2012cb5818e192c270253ce196a2ffaf54a190219440a85e28"
    },
    {
      "constant": false,
      "inputs": [
        {
          "name": "_name",
          "type": "string"
        },
        {
          "name": "_description",
          "type": "string"
        },
        {
          "name": "_price",
          "type": "uint256"
        }
      ],
      "name": "sellItem",
      "outputs": [],
      "payable": false,
      "stateMutability": "nonpayable",
      "type": "function",
      "signature": "0x5f1305ef"
    },
    {
      "constant": true,
      "inputs": [],
      "name": "getNumberOfItems",
      "outputs": [
        {
          "name": "",
          "type": "uint256"
        }
      ],
      "payable": false,
      "stateMutability": "view",
      "type": "function",
      "signature": "0x730ef269"
    },
    {
      "constant": true,
      "inputs": [],
      "name": "getItemsForSale",
      "outputs": [
        {
          "name": "",
          "type": "uint256[]"
        }
      ],
      "payable": false,
      "stateMutability": "view",
      "type": "function",
      "signature": "0x064ddd04"
    },
    {
      "constant": false,
      "inputs": [
        {
          "name": "_id",
          "type": "uint256"
        }
      ],
      "name": "buyItem",
      "outputs": [],
      "payable": true,
      "stateMutability": "payable",
      "type": "function",
      "signature": "0xe7fb74c7"
    },
    {
      "constant": false,
      "inputs": [],
      "name": "kill",
      "outputs": [],
      "payable": false,
      "stateMutability": "nonpayable",
      "type": "function",
      "signature": "0x41c0e1b5"
    }
  ],
  "bytecode": "0x60806040526000600255336000806101000a81548173ffffffffffffffffffffffffffffffffffffffff021916908373ffffffffffffffffffffffffffffffffffffffff160217905550610f1d806100586000396000f3fe608060405260043610610078576000357c0100000000000000000000000000000000000000000000000000000000900463ffffffff168063064ddd041461007d57806341c0e1b5146100e95780635f1305ef14610100578063730ef26914610269578063bfb231d214610294578063e7fb74c714610428575b600080fd5b34801561008957600080fd5b50610092610456565b6040518080602001828103825283818151815260200191508051906020019060200280838360005b838110156100d55780820151818401526020810190506100ba565b505050509050019250505060405180910390f35b3480156100f557600080fd5b506100fe6105e6565b005b34801561010c57600080fd5b506102676004803603606081101561012357600080fd5b810190808035906020019064010000000081111561014057600080fd5b82018360208201111561015257600080fd5b8035906020019184600183028401116401000000008311171561017457600080fd5b91908080601f016020809104026020016040519081016040528093929190818152602001838380828437600081840152601f19601f820116905080830192505050505050509192919290803590602001906401000000008111156101d757600080fd5b8201836020820111156101e957600080fd5b8035906020019184600183028401116401000000008311171561020b57600080fd5b91908080601f016020809104026020016040519081016040528093929190818152602001838380828437600081840152601f19601f8201169050808301925050505050505091929192908035906020019092919050505061070a565b005b34801561027557600080fd5b5061027e610930565b6040518082815260200191505060405180910390f35b3480156102a057600080fd5b506102cd600480360360208110156102b757600080fd5b810190808035906020019092919050505061093a565b604051808781526020018673ffffffffffffffffffffffffffffffffffffffff1673ffffffffffffffffffffffffffffffffffffffff1681526020018573ffffffffffffffffffffffffffffffffffffffff1673ffffffffffffffffffffffffffffffffffffffff1681526020018060200180602001848152602001838103835286818151815260200191508051906020019080838360005b83811015610381578082015181840152602081019050610366565b50505050905090810190601f1680156103ae5780820380516001836020036101000a031916815260200191505b50838103825285818151815260200191508051906020019080838360005b838110156103e75780820151818401526020810190506103cc565b50505050905090810190601f1680156104145780820380516001836020036101000a031916815260200191505b509850505050505050505060405180910390f35b6104546004803603602081101561043e57600080fd5b8101908080359060200190929190505050610ae6565b005b60608060025460405190808252806020026020018201604052801561048a5781602001602082028038833980820191505090505b50905060008090506000600190505b6002548111151561055857600073ffffffffffffffffffffffffffffffffffffffff166001600083815260200190815260200160002060020160009054906101000a900473ffffffffffffffffffffffffffffffffffffffff1673ffffffffffffffffffffffffffffffffffffffff16141561054b576001600082815260200190815260200160002060000154838381518110151561053457fe5b906020019060200201818152505081806001019250505b8080600101915050610499565b5060608160405190808252806020026020018201604052801561058a5781602001602082028038833980820191505090505b50905060008090505b828110156105dc5783818151811015156105a957fe5b9060200190602002015182828151811015156105c157fe5b90602001906020020181815250508080600101915050610593565b5080935050505090565b6000809054906101000a900473ffffffffffffffffffffffffffffffffffffffff1673ffffffffffffffffffffffffffffffffffffffff163373ffffffffffffffffffffffffffffffffffffffff161415156106d0576040517f08c379a00000000000000000000000000000000000000000000000000000000081526004018080602001828103825260228152602001807f4f6e6c79206f776e65722063616e2063616c6c20746869732066756e6374696f81526020017f6e2e00000000000000000000000000000000000000000000000000000000000081525060400191505060405180910390fd5b6000809054906101000a900473ffffffffffffffffffffffffffffffffffffffff1673ffffffffffffffffffffffffffffffffffffffff16ff5b60026000815480929190600101919050555060c06040519081016040528060025481526020013373ffffffffffffffffffffffffffffffffffffffff168152602001600073ffffffffffffffffffffffffffffffffffffffff168152602001848152602001838152602001828152506001600060025481526020019081526020016000206000820151816000015560208201518160010160006101000a81548173ffffffffffffffffffffffffffffffffffffffff021916908373ffffffffffffffffffffffffffffffffffffffff16021790555060408201518160020160006101000a81548173ffffffffffffffffffffffffffffffffffffffff021916908373ffffffffffffffffffffffffffffffffffffffff1602179055506060820151816003019080519060200190610842929190610e4c565b50608082015181600401908051906020019061085f929190610e4c565b5060a082015181600501559050503373ffffffffffffffffffffffffffffffffffffffff166002547f577e6057991b3d10725bee9f35769fb6ca271654e67cffde5ece0904f53bea2d85846040518080602001838152602001828103825284818151815260200191508051906020019080838360005b838110156108f05780820151818401526020810190506108d5565b50505050905090810190601f16801561091d5780820380516001836020036101000a031916815260200191505b50935050505060405180910390a3505050565b6000600254905090565b60016020528060005260406000206000915090508060000154908060010160009054906101000a900473ffffffffffffffffffffffffffffffffffffffff16908060020160009054906101000a900473ffffffffffffffffffffffffffffffffffffffff1690806003018054600181600116156101000203166002900480601f016020809104026020016040519081016040528092919081815260200182805460018160011615610100020316600290048015610a385780601f10610a0d57610100808354040283529160200191610a38565b820191906000526020600020905b815481529060010190602001808311610a1b57829003601f168201915b505050505090806004018054600181600116156101000203166002900480601f016020809104026020016040519081016040528092919081815260200182805460018160011615610100020316600290048015610ad65780601f10610aab57610100808354040283529160200191610ad6565b820191906000526020600020905b815481529060010190602001808311610ab957829003601f168201915b5050505050908060050154905086565b6000600254111515610af757600080fd5b600081118015610b0957506002548111155b1515610b1457600080fd5b6000600160008381526020019081526020016000209050600073ffffffffffffffffffffffffffffffffffffffff168160010160009054906101000a900473ffffffffffffffffffffffffffffffffffffffff1673ffffffffffffffffffffffffffffffffffffffff1614151515610b8b57600080fd5b600073ffffffffffffffffffffffffffffffffffffffff168160020160009054906101000a900473ffffffffffffffffffffffffffffffffffffffff1673ffffffffffffffffffffffffffffffffffffffff16141515610bea57600080fd5b8060010160009054906101000a900473ffffffffffffffffffffffffffffffffffffffff1673ffffffffffffffffffffffffffffffffffffffff163373ffffffffffffffffffffffffffffffffffffffff1614151515610c4957600080fd5b806005015434141515610c5b57600080fd5b338160020160006101000a81548173ffffffffffffffffffffffffffffffffffffffff021916908373ffffffffffffffffffffffffffffffffffffffff1602179055508060010160009054906101000a900473ffffffffffffffffffffffffffffffffffffffff1673ffffffffffffffffffffffffffffffffffffffff166108fc349081150290604051600060405180830381858888f19350505050158015610d08573d6000803e3d6000fd5b508060010160009054906101000a900473ffffffffffffffffffffffffffffffffffffffff1673ffffffffffffffffffffffffffffffffffffffff168160020160009054906101000a900473ffffffffffffffffffffffffffffffffffffffff1673ffffffffffffffffffffffffffffffffffffffff16837f9e0389ddbe9a5b2012cb5818e192c270253ce196a2ffaf54a190219440a85e288460030185600501546040518080602001838152602001828103825284818154600181600116156101000203166002900481526020019150805460018160011615610100020316600290048015610e395780601f10610e0e57610100808354040283529160200191610e39565b820191906000526020600020905b815481529060010190602001808311610e1c57829003601f168201915b5050935050505060405180910390a45050565b828054600181600116156101000203166002900490600052602060002090601f016020900481019282601f10610e8d57805160ff1916838001178555610ebb565b82800160010185558215610ebb579182015b82811115610eba578251825591602001919060010190610e9f565b5b509050610ec89190610ecc565b5090565b610eee91905b80821115610eea576000816000905550600101610ed2565b5090565b9056fea165627a7a723058203905cde538c9032b3c6620312db0f6194c523c9eb7a8e267b82c495b5b162c8b0029",
  "source": "pragma solidity ^0.5.0;\r\n\r\n\r\nimport \"./Owner.sol\";\r\n\r\n\r\ncontract ProductList is Owner{\r\n\r\n\tstruct Item {\r\n\r\n\t\tuint id;\r\n\t\taddress payable seller;\r\n\t\taddress buyer;\r\n\t\tstring name;\r\n\t\tstring description;\r\n\t\tuint256 price;\r\n\r\n\t}\r\n\t\r\n\t//State variables\r\n\tmapping (uint => Item) public items;\r\n\tuint itemCounter= 0;\r\n\r\n\tevent itemSold(uint indexed _id, address indexed _seller, string _name, uint256 _price);\r\n\tevent itemBought(uint indexed _id, address indexed _buyer, address indexed _seller, string _name, uint256 _price);\r\n\t// constructor() public{\r\n\t// \tsellItem('default item', 'description for default item', 1000000000000\t000000);\r\n\t// }\r\n\r\n\tfunction sellItem (string memory _name, string memory _description, uint256 _price) public {\r\n\t\titemCounter++;\r\n\t\titems[itemCounter] = Item(itemCounter, msg.sender, address(0), _name, _description, _price);\r\n\t\temit itemSold( itemCounter, msg.sender, _name, _price );\r\n\t}\r\n\t\r\n\tfunction getNumberOfItems () public view returns(uint)  {\r\n\t\treturn itemCounter;\r\n\t}\r\n\r\n\tfunction getItemsForSale () public view returns(uint[] memory) {\r\n\t\tuint[] memory itemIds = new uint[](itemCounter);//Create an array with max no of elt set as itemCoubter\r\n\t\t//memory because the default which is Storage is more expensive\r\n\t\tuint numberOfItemsForSale = 0;\r\n\t\t//Iterate over the articles\r\n\t\tfor(uint i = 1; i <= itemCounter; i++){\r\n\t\t\t//We keep the the id if it has no buyer\r\n\t\t\tif(items[i].buyer == address(0)){\r\n\t\t\t\titemIds[numberOfItemsForSale] = items[i].id;\r\n\t\t\t\tnumberOfItemsForSale++;\r\n\t\t\t}\r\n\t\t}\r\n\r\n\t\t//Return a smaller array containing only the items for sale\r\n\t\tuint[] memory forSale = new uint[](numberOfItemsForSale);\r\n\t\tfor(uint j = 0; j <\tnumberOfItemsForSale; j++){\r\n\t\t\tforSale[j] = itemIds[j];\r\n\t\t}\r\n\t\treturn forSale;\r\n\t}\r\n\t\r\n\t\r\n\tfunction buyItem (uint _id) public payable {//payable meaning this fxn may receive ether from it's caller\r\n\t\t\r\n\r\n\t\trequire (itemCounter > 0);//Check that an item exists for sale\r\n\r\n\t\trequire (_id > 0 && _id <= itemCounter);//check that requested item exists\r\n\t\t\r\n\t\tItem storage item = items[_id];//This is how you get an element of a mapping\r\n\r\n\t\trequire (item.seller != address(0));//This item has a seller\r\n\t\t\r\n\t\trequire (item.buyer == address(0));////This itemm hasnt been sold\r\n\r\n\t\trequire (msg.sender != item.seller); // The buyer isnt the seller\r\n\r\n\t\trequire (msg.value == item.price); //Amount sent is the price of this item\r\n\r\n\t\titem.buyer = msg.sender;//Store the buyer\r\n\r\n\t\titem.seller.transfer(msg.value);//transfer funds\r\n\r\n\t\t//trigger event\r\n\t\temit itemBought(_id, item.buyer, item.seller, item.name, item.price);\r\n\t}\r\n\r\n\tfunction kill() public onlyOwner {//Only the owner of this contract can do this\r\n        selfdestruct(owner);\r\n    }\r\n\t\r\n\t\r\n}\r\n",
  "sourcePath": "C:/Users/wilpa/Documents/projects/Solidity/BuyAndSell/contracts/ProductList.sol",
  "compiler": {
    "name": "solc",
    "version": "0.5.0+commit.1d4f565a.Emscripten.clang"
  },
  "schemaVersion": "3.0.1",
  "updatedAt": "2019-02-07T13:11:41.844Z",
  "devdoc": {
    "methods": {}
  },
  "userdoc": {
    "methods": {}
  }
}