{
  "contractName": "ProductList",
  "abi": [
    {
      "anonymous": false,
      "inputs": [
        {
          "indexed": true,
          "name": "_seller",
          "type": "address"
        },
        {
          "indexed": false,
          "name": "_name",
          "type": "string"
        },
        {
          "indexed": false,
          "name": "_price",
          "type": "uint256"
        }
      ],
      "name": "itemSold",
      "type": "event",
      "signature": "0x6ff1d47f00a765eb9f671c100a668184685756298622d55643b3abf442fe7263"
    },
    {
      "anonymous": false,
      "inputs": [
        {
          "indexed": true,
          "name": "_buyer",
          "type": "address"
        },
        {
          "indexed": true,
          "name": "_seller",
          "type": "address"
        },
        {
          "indexed": false,
          "name": "_name",
          "type": "string"
        },
        {
          "indexed": false,
          "name": "_price",
          "type": "uint256"
        }
      ],
      "name": "itemBought",
      "type": "event",
      "signature": "0x9fa98e62e578ee98dcbd5c58ebf8431f5e7301687dd0643e5ec9ada30eaa9e5a"
    },
    {
      "constant": false,
      "inputs": [
        {
          "name": "_name",
          "type": "string"
        },
        {
          "name": "_description",
          "type": "string"
        },
        {
          "name": "_price",
          "type": "uint256"
        }
      ],
      "name": "sellItem",
      "outputs": [],
      "payable": false,
      "stateMutability": "nonpayable",
      "type": "function",
      "signature": "0x5f1305ef"
    },
    {
      "constant": true,
      "inputs": [],
      "name": "getItem",
      "outputs": [
        {
          "name": "_seller",
          "type": "address"
        },
        {
          "name": "_buyer",
          "type": "address"
        },
        {
          "name": "_name",
          "type": "string"
        },
        {
          "name": "_description",
          "type": "string"
        },
        {
          "name": "_price",
          "type": "uint256"
        }
      ],
      "payable": false,
      "stateMutability": "view",
      "type": "function",
      "signature": "0xc412eaba"
    },
    {
      "constant": false,
      "inputs": [],
      "name": "buyItem",
      "outputs": [],
      "payable": true,
      "stateMutability": "payable",
      "type": "function",
      "signature": "0x795612d6"
    }
  ],
  "bytecode": "0x608060405234801561001057600080fd5b50610a05806100206000396000f3fe608060405260043610610057576000357c0100000000000000000000000000000000000000000000000000000000900463ffffffff1680635f1305ef1461005c578063795612d6146101c5578063c412eaba146101cf575b600080fd5b34801561006857600080fd5b506101c36004803603606081101561007f57600080fd5b810190808035906020019064010000000081111561009c57600080fd5b8201836020820111156100ae57600080fd5b803590602001918460018302840111640100000000831117156100d057600080fd5b91908080601f016020809104026020016040519081016040528093929190818152602001838380828437600081840152601f19601f8201169050808301925050505050505091929192908035906020019064010000000081111561013357600080fd5b82018360208201111561014557600080fd5b8035906020019184600183028401116401000000008311171561016757600080fd5b91908080601f016020809104026020016040519081016040528093929190818152602001838380828437600081840152601f19601f82011690508083019250505050505050919291929080359060200190929190505050610338565b005b6101cd61048e565b005b3480156101db57600080fd5b506101e4610794565b604051808673ffffffffffffffffffffffffffffffffffffffff1673ffffffffffffffffffffffffffffffffffffffff1681526020018573ffffffffffffffffffffffffffffffffffffffff1673ffffffffffffffffffffffffffffffffffffffff1681526020018060200180602001848152602001838103835286818151815260200191508051906020019080838360005b83811015610292578082015181840152602081019050610277565b50505050905090810190601f1680156102bf5780820380516001836020036101000a031916815260200191505b50838103825285818151815260200191508051906020019080838360005b838110156102f85780820151818401526020810190506102dd565b50505050905090810190601f1680156103255780820380516001836020036101000a031916815260200191505b5097505050505050505060405180910390f35b336000806101000a81548173ffffffffffffffffffffffffffffffffffffffff021916908373ffffffffffffffffffffffffffffffffffffffff160217905550826002908051906020019061038e929190610934565b5081600390805190602001906103a5929190610934565b50806004819055506000809054906101000a900473ffffffffffffffffffffffffffffffffffffffff1673ffffffffffffffffffffffffffffffffffffffff167f6ff1d47f00a765eb9f671c100a668184685756298622d55643b3abf442fe726384836040518080602001838152602001828103825284818151815260200191508051906020019080838360005b8381101561044e578082015181840152602081019050610433565b50505050905090810190601f16801561047b5780820380516001836020036101000a031916815260200191505b50935050505060405180910390a2505050565b600073ffffffffffffffffffffffffffffffffffffffff166000809054906101000a900473ffffffffffffffffffffffffffffffffffffffff1673ffffffffffffffffffffffffffffffffffffffff16141515156104eb57600080fd5b600073ffffffffffffffffffffffffffffffffffffffff16600160009054906101000a900473ffffffffffffffffffffffffffffffffffffffff1673ffffffffffffffffffffffffffffffffffffffff1614151561054857600080fd5b6000809054906101000a900473ffffffffffffffffffffffffffffffffffffffff1673ffffffffffffffffffffffffffffffffffffffff163373ffffffffffffffffffffffffffffffffffffffff16141515156105a457600080fd5b600454341415156105b457600080fd5b33600160006101000a81548173ffffffffffffffffffffffffffffffffffffffff021916908373ffffffffffffffffffffffffffffffffffffffff1602179055506000809054906101000a900473ffffffffffffffffffffffffffffffffffffffff1673ffffffffffffffffffffffffffffffffffffffff166108fc349081150290604051600060405180830381858888f1935050505015801561065c573d6000803e3d6000fd5b506000809054906101000a900473ffffffffffffffffffffffffffffffffffffffff1673ffffffffffffffffffffffffffffffffffffffff16600160009054906101000a900473ffffffffffffffffffffffffffffffffffffffff1673ffffffffffffffffffffffffffffffffffffffff167f9fa98e62e578ee98dcbd5c58ebf8431f5e7301687dd0643e5ec9ada30eaa9e5a600260045460405180806020018381526020018281038252848181546001816001161561010002031660029004815260200191508054600181600116156101000203166002900480156107835780601f1061075857610100808354040283529160200191610783565b820191906000526020600020905b81548152906001019060200180831161076657829003601f168201915b5050935050505060405180910390a3565b60008060608060008060009054906101000a900473ffffffffffffffffffffffffffffffffffffffff16600160009054906101000a900473ffffffffffffffffffffffffffffffffffffffff1660026003600454849450828054600181600116156101000203166002900480601f0160208091040260200160405190810160405280929190818152602001828054600181600116156101000203166002900480156108805780601f1061085557610100808354040283529160200191610880565b820191906000526020600020905b81548152906001019060200180831161086357829003601f168201915b50505050509250818054600181600116156101000203166002900480601f01602080910402602001604051908101604052809291908181526020018280546001816001161561010002031660029004801561091c5780601f106108f15761010080835404028352916020019161091c565b820191906000526020600020905b8154815290600101906020018083116108ff57829003601f168201915b50505050509150945094509450945094509091929394565b828054600181600116156101000203166002900490600052602060002090601f016020900481019282601f1061097557805160ff19168380011785556109a3565b828001600101855582156109a3579182015b828111156109a2578251825591602001919060010190610987565b5b5090506109b091906109b4565b5090565b6109d691905b808211156109d25760008160009055506001016109ba565b5090565b9056fea165627a7a723058208b9f9ec51fa171ca13ce2284fc31964b1e3eb7ceb6a781020d0aad3cde71624f0029",
  "source": "pragma solidity ^0.5.0;\r\n\r\ncontract ProductList{\r\n\r\n\taddress payable seller;\r\n\taddress buyer;\r\n\tstring name;\r\n\tstring description;\r\n\tuint256 price;\r\n\r\n\tevent itemSold(address indexed _seller, string _name, uint256 _price);\r\n\tevent itemBought(address indexed _buyer, address indexed _seller, string _name, uint256 _price);\r\n\t// constructor() public{\r\n\t// \tsellItem('default item', 'description for default item', 1000000000000\t000000);\r\n\t// }\r\n\r\n\tfunction sellItem (string memory _name, string memory _description, uint256 _price) public {\r\n\t\tseller = msg.sender;\r\n\t\tname = _name;\r\n\t\tdescription = _description;\r\n\t\tprice = _price;\r\n\t\temit itemSold(seller, _name, _price);\r\n\t}\r\n\t\r\n\tfunction getItem () public view returns(\r\n\t\taddress _seller,\r\n\t\taddress _buyer,\r\n\t\tstring memory _name,\r\n\t\tstring memory _description,\r\n\t\tuint256 _price\r\n\t){\r\n\t\treturn (seller, buyer, name, description, price);\r\n\t}\r\n\t\r\n\tfunction buyItem () public payable {//payable meaning this fxn may receive ether from it's caller\r\n\t\t\r\n\t\trequire (seller != address(0x0));//This item has a seller\r\n\t\t\r\n\t\trequire (buyer == address(0x0));////This itemm hasnt been sold\r\n\r\n\t\trequire (msg.sender != seller); // The buyer isnt the seller\r\n\r\n\t\trequire (msg.value == price); //Amount sent is the price of this item\r\n\r\n\t\tbuyer = msg.sender;//Store the buyer\r\n\r\n\t\tseller.transfer(msg.value);//transfer funds\r\n\r\n\t\t//trigger event\r\n\t\temit itemBought(buyer, seller, name, price);\r\n\t}\r\n\t\r\n\t\r\n}\r\n",
  "sourcePath": "C:/Users/wilpa/Documents/projects/Solidity/BuyAndSell/contracts/ProductList.sol",
  "compiler": {
    "name": "solc",
    "version": "0.5.0+commit.1d4f565a.Emscripten.clang"
  },
  "schemaVersion": "3.0.1",
  "updatedAt": "2019-02-05T06:34:42.887Z",
  "devdoc": {
    "methods": {}
  },
  "userdoc": {
    "methods": {}
  }
}