{
  "contractName": "ProductList",
  "abi": [
    {
      "constant": true,
      "inputs": [
        {
          "name": "",
          "type": "uint256"
        }
      ],
      "name": "items",
      "outputs": [
        {
          "name": "id",
          "type": "uint256"
        },
        {
          "name": "seller",
          "type": "address"
        },
        {
          "name": "buyer",
          "type": "address"
        },
        {
          "name": "name",
          "type": "string"
        },
        {
          "name": "description",
          "type": "string"
        },
        {
          "name": "price",
          "type": "uint256"
        }
      ],
      "payable": false,
      "stateMutability": "view",
      "type": "function",
      "signature": "0xbfb231d2"
    },
    {
      "anonymous": false,
      "inputs": [
        {
          "indexed": true,
          "name": "_id",
          "type": "uint256"
        },
        {
          "indexed": true,
          "name": "_seller",
          "type": "address"
        },
        {
          "indexed": false,
          "name": "_name",
          "type": "string"
        },
        {
          "indexed": false,
          "name": "_price",
          "type": "uint256"
        }
      ],
      "name": "itemSold",
      "type": "event",
      "signature": "0x577e6057991b3d10725bee9f35769fb6ca271654e67cffde5ece0904f53bea2d"
    },
    {
      "anonymous": false,
      "inputs": [
        {
          "indexed": true,
          "name": "_id",
          "type": "uint256"
        },
        {
          "indexed": true,
          "name": "_buyer",
          "type": "address"
        },
        {
          "indexed": true,
          "name": "_seller",
          "type": "address"
        },
        {
          "indexed": false,
          "name": "_name",
          "type": "string"
        },
        {
          "indexed": false,
          "name": "_price",
          "type": "uint256"
        }
      ],
      "name": "itemBought",
      "type": "event",
      "signature": "0x9e0389ddbe9a5b2012cb5818e192c270253ce196a2ffaf54a190219440a85e28"
    },
    {
      "constant": false,
      "inputs": [
        {
          "name": "_name",
          "type": "string"
        },
        {
          "name": "_description",
          "type": "string"
        },
        {
          "name": "_price",
          "type": "uint256"
        }
      ],
      "name": "sellItem",
      "outputs": [],
      "payable": false,
      "stateMutability": "nonpayable",
      "type": "function",
      "signature": "0x5f1305ef"
    },
    {
      "constant": true,
      "inputs": [],
      "name": "getNumberOfItems",
      "outputs": [
        {
          "name": "",
          "type": "uint256"
        }
      ],
      "payable": false,
      "stateMutability": "view",
      "type": "function",
      "signature": "0x730ef269"
    },
    {
      "constant": true,
      "inputs": [],
      "name": "getItemsForSale",
      "outputs": [
        {
          "name": "",
          "type": "uint256[]"
        }
      ],
      "payable": false,
      "stateMutability": "view",
      "type": "function",
      "signature": "0x064ddd04"
    },
    {
      "constant": false,
      "inputs": [
        {
          "name": "_id",
          "type": "uint256"
        }
      ],
      "name": "buyItem",
      "outputs": [],
      "payable": true,
      "stateMutability": "payable",
      "type": "function",
      "signature": "0xe7fb74c7"
    }
  ],
  "bytecode": "0x6080604052600060015534801561001557600080fd5b50610dd3806100256000396000f3fe60806040526004361061006d576000357c0100000000000000000000000000000000000000000000000000000000900463ffffffff168063064ddd04146100725780635f1305ef146100de578063730ef26914610247578063bfb231d214610272578063e7fb74c714610406575b600080fd5b34801561007e57600080fd5b50610087610434565b6040518080602001828103825283818151815260200191508051906020019060200280838360005b838110156100ca5780820151818401526020810190506100af565b505050509050019250505060405180910390f35b3480156100ea57600080fd5b506102456004803603606081101561010157600080fd5b810190808035906020019064010000000081111561011e57600080fd5b82018360208201111561013057600080fd5b8035906020019184600183028401116401000000008311171561015257600080fd5b91908080601f016020809104026020016040519081016040528093929190818152602001838380828437600081840152601f19601f820116905080830192505050505050509192919290803590602001906401000000008111156101b557600080fd5b8201836020820111156101c757600080fd5b803590602001918460018302840111640100000000831117156101e957600080fd5b91908080601f016020809104026020016040519081016040528093929190818152602001838380828437600081840152601f19601f820116905080830192505050505050509192919290803590602001909291905050506105c2565b005b34801561025357600080fd5b5061025c6107e7565b6040518082815260200191505060405180910390f35b34801561027e57600080fd5b506102ab6004803603602081101561029557600080fd5b81019080803590602001909291905050506107f1565b604051808781526020018673ffffffffffffffffffffffffffffffffffffffff1673ffffffffffffffffffffffffffffffffffffffff1681526020018573ffffffffffffffffffffffffffffffffffffffff1673ffffffffffffffffffffffffffffffffffffffff1681526020018060200180602001848152602001838103835286818151815260200191508051906020019080838360005b8381101561035f578082015181840152602081019050610344565b50505050905090810190601f16801561038c5780820380516001836020036101000a031916815260200191505b50838103825285818151815260200191508051906020019080838360005b838110156103c55780820151818401526020810190506103aa565b50505050905090810190601f1680156103f25780820380516001836020036101000a031916815260200191505b509850505050505050505060405180910390f35b6104326004803603602081101561041c57600080fd5b810190808035906020019092919050505061099d565b005b6060806001546040519080825280602002602001820160405280156104685781602001602082028038833980820191505090505b50905060008090506000600190505b6001548111151561053457600073ffffffffffffffffffffffffffffffffffffffff1660008083815260200190815260200160002060020160009054906101000a900473ffffffffffffffffffffffffffffffffffffffff1673ffffffffffffffffffffffffffffffffffffffff1614156105275760008082815260200190815260200160002060000154838381518110151561051057fe5b906020019060200201818152505081806001019250505b8080600101915050610477565b506060816040519080825280602002602001820160405280156105665781602001602082028038833980820191505090505b50905060008090505b828110156105b857838181518110151561058557fe5b90602001906020020151828281518110151561059d57fe5b9060200190602002018181525050808060010191505061056f565b5080935050505090565b60016000815480929190600101919050555060c06040519081016040528060015481526020013373ffffffffffffffffffffffffffffffffffffffff168152602001600073ffffffffffffffffffffffffffffffffffffffff1681526020018481526020018381526020018281525060008060015481526020019081526020016000206000820151816000015560208201518160010160006101000a81548173ffffffffffffffffffffffffffffffffffffffff021916908373ffffffffffffffffffffffffffffffffffffffff16021790555060408201518160020160006101000a81548173ffffffffffffffffffffffffffffffffffffffff021916908373ffffffffffffffffffffffffffffffffffffffff16021790555060608201518160030190805190602001906106f9929190610d02565b506080820151816004019080519060200190610716929190610d02565b5060a082015181600501559050503373ffffffffffffffffffffffffffffffffffffffff166001547f577e6057991b3d10725bee9f35769fb6ca271654e67cffde5ece0904f53bea2d85846040518080602001838152602001828103825284818151815260200191508051906020019080838360005b838110156107a757808201518184015260208101905061078c565b50505050905090810190601f1680156107d45780820380516001836020036101000a031916815260200191505b50935050505060405180910390a3505050565b6000600154905090565b60006020528060005260406000206000915090508060000154908060010160009054906101000a900473ffffffffffffffffffffffffffffffffffffffff16908060020160009054906101000a900473ffffffffffffffffffffffffffffffffffffffff1690806003018054600181600116156101000203166002900480601f0160208091040260200160405190810160405280929190818152602001828054600181600116156101000203166002900480156108ef5780601f106108c4576101008083540402835291602001916108ef565b820191906000526020600020905b8154815290600101906020018083116108d257829003601f168201915b505050505090806004018054600181600116156101000203166002900480601f01602080910402602001604051908101604052809291908181526020018280546001816001161561010002031660029004801561098d5780601f106109625761010080835404028352916020019161098d565b820191906000526020600020905b81548152906001019060200180831161097057829003601f168201915b5050505050908060050154905086565b60006001541115156109ae57600080fd5b6000811180156109c057506001548111155b15156109cb57600080fd5b60008060008381526020019081526020016000209050600073ffffffffffffffffffffffffffffffffffffffff168160010160009054906101000a900473ffffffffffffffffffffffffffffffffffffffff1673ffffffffffffffffffffffffffffffffffffffff1614151515610a4157600080fd5b600073ffffffffffffffffffffffffffffffffffffffff168160020160009054906101000a900473ffffffffffffffffffffffffffffffffffffffff1673ffffffffffffffffffffffffffffffffffffffff16141515610aa057600080fd5b8060010160009054906101000a900473ffffffffffffffffffffffffffffffffffffffff1673ffffffffffffffffffffffffffffffffffffffff163373ffffffffffffffffffffffffffffffffffffffff1614151515610aff57600080fd5b806005015434141515610b1157600080fd5b338160020160006101000a81548173ffffffffffffffffffffffffffffffffffffffff021916908373ffffffffffffffffffffffffffffffffffffffff1602179055508060010160009054906101000a900473ffffffffffffffffffffffffffffffffffffffff1673ffffffffffffffffffffffffffffffffffffffff166108fc349081150290604051600060405180830381858888f19350505050158015610bbe573d6000803e3d6000fd5b508060010160009054906101000a900473ffffffffffffffffffffffffffffffffffffffff1673ffffffffffffffffffffffffffffffffffffffff168160020160009054906101000a900473ffffffffffffffffffffffffffffffffffffffff1673ffffffffffffffffffffffffffffffffffffffff16837f9e0389ddbe9a5b2012cb5818e192c270253ce196a2ffaf54a190219440a85e288460030185600501546040518080602001838152602001828103825284818154600181600116156101000203166002900481526020019150805460018160011615610100020316600290048015610cef5780601f10610cc457610100808354040283529160200191610cef565b820191906000526020600020905b815481529060010190602001808311610cd257829003601f168201915b5050935050505060405180910390a45050565b828054600181600116156101000203166002900490600052602060002090601f016020900481019282601f10610d4357805160ff1916838001178555610d71565b82800160010185558215610d71579182015b82811115610d70578251825591602001919060010190610d55565b5b509050610d7e9190610d82565b5090565b610da491905b80821115610da0576000816000905550600101610d88565b5090565b9056fea165627a7a72305820fcd391100d9dc908e8a77c97b32ec0c96da840f4a06631badd2a96ceac2303ad0029",
  "source": "pragma solidity ^0.5.0;\r\n\r\ncontract ProductList{\r\n\r\n\tstruct Item {\r\n\r\n\t\tuint id;\r\n\t\taddress payable seller;\r\n\t\taddress buyer;\r\n\t\tstring name;\r\n\t\tstring description;\r\n\t\tuint256 price;\r\n\r\n\t}\r\n\t\r\n\tmapping (uint => Item) public items;\r\n\tuint itemCounter= 0;\r\n\r\n\tevent itemSold(uint indexed _id, address indexed _seller, string _name, uint256 _price);\r\n\tevent itemBought(uint indexed _id, address indexed _buyer, address indexed _seller, string _name, uint256 _price);\r\n\t// constructor() public{\r\n\t// \tsellItem('default item', 'description for default item', 1000000000000\t000000);\r\n\t// }\r\n\r\n\tfunction sellItem (string memory _name, string memory _description, uint256 _price) public {\r\n\t\titemCounter++;\r\n\t\titems[itemCounter] = Item(itemCounter, msg.sender, address(0), _name, _description, _price);\r\n\t\temit itemSold( itemCounter, msg.sender, _name, _price );\r\n\t}\r\n\t\r\n\tfunction getNumberOfItems () public view returns(uint)  {\r\n\t\treturn itemCounter;\r\n\t}\r\n\r\n\tfunction getItemsForSale () public view returns(uint[] memory) {\r\n\t\tuint[] memory itemIds = new uint[](itemCounter);//Create an array with max no of elt set as itemCoubter\r\n\t\t//memory because the default which is Storage is more expensive\r\n\t\tuint numberOfItemsForSale = 0;\r\n\t\t//Iterate over the articles\r\n\t\tfor(uint i = 1; i <= itemCounter; i++){\r\n\t\t\t//We keep the the id if it has no buyer\r\n\t\t\tif(items[i].buyer == address(0)){\r\n\t\t\t\titemIds[numberOfItemsForSale] = items[i].id;\r\n\t\t\t\tnumberOfItemsForSale++;\r\n\t\t\t}\r\n\t\t}\r\n\r\n\t\t//Return a smaller array containing only the items for sale\r\n\t\tuint[] memory forSale = new uint[](numberOfItemsForSale);\r\n\t\tfor(uint j = 0; j <\tnumberOfItemsForSale; j++){\r\n\t\t\tforSale[j] = itemIds[j];\r\n\t\t}\r\n\t\treturn forSale;\r\n\t}\r\n\t\r\n\t\r\n\tfunction buyItem (uint _id) public payable {//payable meaning this fxn may receive ether from it's caller\r\n\t\t\r\n\r\n\t\trequire (itemCounter > 0);//Check that an item exists for sale\r\n\r\n\t\trequire (_id > 0 && _id <= itemCounter);//check that requested item exists\r\n\t\t\r\n\t\tItem storage item = items[_id];//This is how you get an element of a mapping\r\n\r\n\t\trequire (item.seller != address(0));//This item has a seller\r\n\t\t\r\n\t\trequire (item.buyer == address(0));////This itemm hasnt been sold\r\n\r\n\t\trequire (msg.sender != item.seller); // The buyer isnt the seller\r\n\r\n\t\trequire (msg.value == item.price); //Amount sent is the price of this item\r\n\r\n\t\titem.buyer = msg.sender;//Store the buyer\r\n\r\n\t\titem.seller.transfer(msg.value);//transfer funds\r\n\r\n\t\t//trigger event\r\n\t\temit itemBought(_id, item.buyer, item.seller, item.name, item.price);\r\n\t}\r\n\t\r\n\t\r\n}\r\n",
  "sourcePath": "C:/Users/wilpa/Documents/projects/Solidity/BuyAndSell/contracts/ProductList.sol",
  "compiler": {
    "name": "solc",
    "version": "0.5.0+commit.1d4f565a.Emscripten.clang"
  },
  "schemaVersion": "3.0.1",
  "updatedAt": "2019-02-07T01:07:41.340Z",
  "devdoc": {
    "methods": {}
  },
  "userdoc": {
    "methods": {}
  }
}